{
	"data": {
		"bytecode": {
			"linkReferences": {},
			"object": "6080604052348015600e575f80fd5b5061019e8061001c5f395ff3fe608060405234801561000f575f80fd5b506004361061003f575f3560e01c80637fe8888514610043578063b0da51951461005f578063e7db7a751461007d575b5f80fd5b61005d60048036038101906100589190610115565b61009b565b005b6100676100d1565b604051610074919061014f565b60405180910390f35b6100856100d6565b604051610092919061014f565b60405180910390f35b805f81905550807f94064d925a8b107bd49bcd440ea5da85b1ce987eef138b159ece3ba15735a42f60405160405180910390a250565b5f5481565b5f8054905090565b5f80fd5b5f819050919050565b6100f4816100e2565b81146100fe575f80fd5b50565b5f8135905061010f816100eb565b92915050565b5f6020828403121561012a576101296100de565b5b5f61013784828501610101565b91505092915050565b610149816100e2565b82525050565b5f6020820190506101625f830184610140565b9291505056fea26469706673582212209cce66e2eecb242e1fc6e14d22e0b4fc0c4f3a2af408b30fb780c94125c3aa6364736f6c63430008190033",
			"opcodes": "PUSH1 0x80 PUSH1 0x40 MSTORE CALLVALUE DUP1 ISZERO PUSH1 0xE JUMPI PUSH0 DUP1 REVERT JUMPDEST POP PUSH2 0x19E DUP1 PUSH2 0x1C PUSH0 CODECOPY PUSH0 RETURN INVALID PUSH1 0x80 PUSH1 0x40 MSTORE CALLVALUE DUP1 ISZERO PUSH2 0xF JUMPI PUSH0 DUP1 REVERT JUMPDEST POP PUSH1 0x4 CALLDATASIZE LT PUSH2 0x3F JUMPI PUSH0 CALLDATALOAD PUSH1 0xE0 SHR DUP1 PUSH4 0x7FE88885 EQ PUSH2 0x43 JUMPI DUP1 PUSH4 0xB0DA5195 EQ PUSH2 0x5F JUMPI DUP1 PUSH4 0xE7DB7A75 EQ PUSH2 0x7D JUMPI JUMPDEST PUSH0 DUP1 REVERT JUMPDEST PUSH2 0x5D PUSH1 0x4 DUP1 CALLDATASIZE SUB DUP2 ADD SWAP1 PUSH2 0x58 SWAP2 SWAP1 PUSH2 0x115 JUMP JUMPDEST PUSH2 0x9B JUMP JUMPDEST STOP JUMPDEST PUSH2 0x67 PUSH2 0xD1 JUMP JUMPDEST PUSH1 0x40 MLOAD PUSH2 0x74 SWAP2 SWAP1 PUSH2 0x14F JUMP JUMPDEST PUSH1 0x40 MLOAD DUP1 SWAP2 SUB SWAP1 RETURN JUMPDEST PUSH2 0x85 PUSH2 0xD6 JUMP JUMPDEST PUSH1 0x40 MLOAD PUSH2 0x92 SWAP2 SWAP1 PUSH2 0x14F JUMP JUMPDEST PUSH1 0x40 MLOAD DUP1 SWAP2 SUB SWAP1 RETURN JUMPDEST DUP1 PUSH0 DUP2 SWAP1 SSTORE POP DUP1 PUSH32 0x94064D925A8B107BD49BCD440EA5DA85B1CE987EEF138B159ECE3BA15735A42F PUSH1 0x40 MLOAD PUSH1 0x40 MLOAD DUP1 SWAP2 SUB SWAP1 LOG2 POP JUMP JUMPDEST PUSH0 SLOAD DUP2 JUMP JUMPDEST PUSH0 DUP1 SLOAD SWAP1 POP SWAP1 JUMP JUMPDEST PUSH0 DUP1 REVERT JUMPDEST PUSH0 DUP2 SWAP1 POP SWAP2 SWAP1 POP JUMP JUMPDEST PUSH2 0xF4 DUP2 PUSH2 0xE2 JUMP JUMPDEST DUP2 EQ PUSH2 0xFE JUMPI PUSH0 DUP1 REVERT JUMPDEST POP JUMP JUMPDEST PUSH0 DUP2 CALLDATALOAD SWAP1 POP PUSH2 0x10F DUP2 PUSH2 0xEB JUMP JUMPDEST SWAP3 SWAP2 POP POP JUMP JUMPDEST PUSH0 PUSH1 0x20 DUP3 DUP5 SUB SLT ISZERO PUSH2 0x12A JUMPI PUSH2 0x129 PUSH2 0xDE JUMP JUMPDEST JUMPDEST PUSH0 PUSH2 0x137 DUP5 DUP3 DUP6 ADD PUSH2 0x101 JUMP JUMPDEST SWAP2 POP POP SWAP3 SWAP2 POP POP JUMP JUMPDEST PUSH2 0x149 DUP2 PUSH2 0xE2 JUMP JUMPDEST DUP3 MSTORE POP POP JUMP JUMPDEST PUSH0 PUSH1 0x20 DUP3 ADD SWAP1 POP PUSH2 0x162 PUSH0 DUP4 ADD DUP5 PUSH2 0x140 JUMP JUMPDEST SWAP3 SWAP2 POP POP JUMP INVALID LOG2 PUSH5 0x6970667358 0x22 SLT KECCAK256 SWAP13 0xCE PUSH7 0xE2EECB242E1FC6 0xE1 0x4D 0x22 0xE0 0xB4 0xFC 0xC 0x4F GASPRICE 0x2A DELEGATECALL ADDMOD 0xB3 0xF 0xB7 DUP1 0xC9 COINBASE 0x25 0xC3 0xAA PUSH4 0x64736F6C PUSH4 0x43000819 STOP CALLER "
		},
		"gasEstimates": {
			"creation": {
				"codeDepositCost": "82800",
				"executionCost": "127",
				"totalCost": "82927"
			},
			"external": {
				"getStoredHash()": "2454",
				"storeHash(bytes32)": "23647",
				"storedHash()": "2424"
			}
		},
		"methodIdentifiers": {
			"getStoredHash()": "e7db7a75",
			"storeHash(bytes32)": "7fe88885",
			"storedHash()": "b0da5195"
		}
	},
	"abi": [
		{
			"anonymous": false,
			"inputs": [
				{
					"indexed": true,
					"internalType": "bytes32",
					"name": "hash",
					"type": "bytes32"
				}
			],
			"name": "HashStored",
			"type": "event"
		},
		{
			"inputs": [],
			"name": "getStoredHash",
			"outputs": [
				{
					"internalType": "bytes32",
					"name": "",
					"type": "bytes32"
				}
			],
			"stateMutability": "view",
			"type": "function"
		},
		{
			"inputs": [
				{
					"internalType": "bytes32",
					"name": "hash",
					"type": "bytes32"
				}
			],
			"name": "storeHash",
			"outputs": [],
			"stateMutability": "nonpayable",
			"type": "function"
		},
		{
			"inputs": [],
			"name": "storedHash",
			"outputs": [
				{
					"internalType": "bytes32",
					"name": "",
					"type": "bytes32"
				}
			],
			"stateMutability": "view",
			"type": "function"
		}
	]
}